:1000000008308A00C32A0000FF00030E8301A60007
:100010007F08A5000A08AD008A01A50E0408A70004
:100020002008A8002108A9002208AA002308AB0084
:100030002408AC00831383128B1E20280B1943283D
:100040008B1D24280B1845288C308400001F2A287B
:100050000C1B47288C308400801C30288C184928C1
:10006000270884002808A0002908A1002A08A20067
:100070002B08A3002C08A4002D088A00260E83005C
:10008000FF0E7F0E09008A112E298A119D2A8A11DE
:1000900022298A11B22A0A108A100A118207003412
:1000A0002534343425340034DB34CC34DB340A10CA
:1000B0008A100A118207AA346A345A3456345534E5
:1000C00055349534A534A934AA3460349534993420
:1000D000943440345934A434553450346A34983408
:1000E0006534A0349034A8346934A634643454346C
:1000F000803458345634683496349A34A5340A100F
:100100008A100A11863E03188A0A820000342F34AE
:1001100000340834083437340034013409343834B6
:10012000003401340A343934003401340B343A34A5
:10013000003401340C343B34003401340D343C348D
:10014000003401340E343D34003401340F343E3475
:100150000034013410343F3400340134113440345D
:100160000034013412344134003401341334423445
:10017000003401341434433400340134153444342D
:100180000034013416344534003401341734463415
:1001900000340134183447340034063419344834F8
:1001A000003401341A344934003401341B344A34E5
:1001B000003401341C344B34003401341D344C34CD
:1001C000003401341E344D34003401341F344E34B5
:1001D0000034013420344F3400340134213450349D
:1001E0000034013422345134003401342334523485
:1001F000003401342434533400340134253454346D
:100200000034013426345534003401342734563454
:10021000003401342834573400340134293458343C
:10022000003401342A345934003401342B345A3424
:10023000003401342C345B34003401342D345C340C
:10024000003401349F18222983161E088312E3000C
:100250001E08E4006A150C138A1130286B086C0420
:10026000031936296B080319EC03EB0365086604D0
:1002700003193F2965080319E603E5036529831679
:10028000A8018312E70803194729E7034A291E300A
:10029000E700EA14BE08031955298316A6080319B6
:1002A0005329A60356298312371083168312DB08BD
:1002B000031960298316A70803195F29A70383126E
:1002C0009F140730E6002730E5008316A2080319C3
:1002D0006A29A20383120B118A1130288316200B7E
:1002E00072297329A5018312EA1978296A1F8B29BB
:1002F0006A1E82298316251483125E088316CE0097
:10030000892983128316250883123C045F0483160F
:10031000CE008E2983125F088316CE002E1021088E
:100320004E050139031D2E14AE1021084E05023969
:10033000031DAE142E1121084E050439031D2E1580
:100340002E18A62983120712A829831683120716CE
:100350008316AE18AF2983128712B1298316831230
:10036000871683162E19B82983120713BA29831604
:100370008312071700340608E900E030E905E90EAA
:10038000E90C0730E905690838068316AC004D1002
:100390002C0883125D0506390319D12983164D14E3
:1003A00083128316CD10AC080319CD144D11CD1C4A
:1003B000E229831237085D05031DE0298316E2292F
:1003C00083164D154D1DF02983126A125D085105E3
:1003D000031D6A165D08FF3A0739DE008316A80A76
:1003E000CD1CF92983125B088316A7008312EA1635
:1003F00083164D1CFE29AC08031D8D2A8312C608E6
:1004000003190E2A831628088312460203180E2A9F
:100410008316A101CD15AC01122A83123708831669
:10042000A100CD112C1D322A2C08043C0319232ACB
:100430008312371D1D2A8316232AB7080319222A7F
:100440008316322A8316831207108710071504308B
:10045000DD00EA11371D2F2A3B08DF00302ADF01BB
:100460007F2A8316AC1C522A2C08023C0319432A0B
:100470008312B71C3D2A8316432AB7080319422A60
:100480008316522A8316831207100711871402302D
:10049000DD00EA11B71C4F2A3A08DF00502ADF01BD
:1004A0007F2A83162C1C712A2C0B572A622A83124E
:1004B000371C5C2A8316622AB7080319612A83163F
:1004C000712A831683128710071107140130DD008B
:1004D000EA11371C6E2A3908DF006F2ADF017F2AF4
:1004E00083168312871007118316CD197B2A831276
:1004F00007107D2A831683120714DD01DF01DB0854
:1005000003198A2A8316A7080319882A83128A2ABC
:100510008312DF016E219C2A83162C088312DD05CD
:10052000DB0803199C2A8316A7080319992A83124A
:100530009C2A8312DF016E210034051EAA2A6A1844
:10054000AA2A05080F390F39A000F03068052004E9
:10055000E8006816051E6A10051A6A14BB210B1004
:100560008A113028E20BF92AE00A0730E00560081A
:1005700003398316CE004E0883124B20A100831648
:10058000CF00831252080319CF2A013A0319D22A45
:10059000033A0319DA2A013A0319E12AE72A8316F2
:1005A000CD01EA2A83164F0CCD00CD0CCD0C1F30A7
:1005B000CD05EA2A83164F0CCD00CD0C3F30CD057A
:1005C000EA2A031083164F0CCD00EA2A8312831601
:1005D0004F08CD008312601DF12A8316CD09CD0A84
:1005E00083123E308316CD074D08831295006108B3
:1005F000E2008C108A1130288316490883120317F1
:100600008D00831603134A08831203178C00831688
:100610008C130C15831203130B08A0008B13831685
:10062000031755308D00AA308D008C148C18162BB2
:100630000C118312031320088B0400342D30831611
:10064000BE002D30831203178D0083168C130C14FB
:1006500083120C0883160313C000FF3083120317A4
:100660008D0083168C130C1483120C08831603134D
:10067000C200C1014008A53C031DA42BBF01BD0160
:100680003D08073C031C652B2F303D07C400640068
:100690003F08831203178D0083168C130C148312EA
:1006A0000C0883160313C3008312A30183164408A6
:1006B0008400831383122318831783164308800052
:1006C0004308C106BF0ABD0A402B0130BD003D08EA
:1006D000263C031C9D2B3D0D8312A000A00DFC3079
:1006E000A0052008013E8316C600460A83127F201B
:1006F000A3008316460883127F208316C40064007B
:100700003F08831203178D0083168C130C14831279
:100710000C0883160313C3008312A3018316440835
:1007200084008313831223188317831643088000E1
:100730004308C106BF0ABD0A672B4208C106C108AB
:100740000319A32BC001A52BC001C008031D4D2C0C
:1007500001308312AF002230B000B101B201B30109
:10076000B401B501B6010330B700B8010230B900D9
:100770000330BA00BB01BC000630BD00BE01BF01A2
:10078000C001C101C201C301C4010830C50063300A
:10079000C6001F30C7000E30C8000230C9001B3031
:1007A000CA000B30CB001530CC003230CD004430C5
:1007B000CE000130CF000230D000D101D2003A305B
:1007C000D300D4013B30D500D6013C30D700D8014E
:1007D0003D30D900DA010830DB00A530DC0083169B
:1007E000C101BF01BD013D08073C031C132C2F3084
:1007F0003D07C40064008312A301831644088400EB
:10080000831383122318831700088316C3003F083D
:10081000C9004308CA008312FC2283164308C1069C
:10082000BF0ABD0AF32B0130BD003D08263C031C66
:10083000462C3D0D8312A000A00DFC30A005200821
:10084000013E8316C600460A83127F20A30083164A
:10085000460883127F208316C40064008312A3011C
:100860008316440884008313831223188317000817
:100870008316C3003F08C9004308CA008312FC2244
:1008800083164308C106BF0ABD0A152CFF30C900F4
:100890004108CA008312FC22831683120034831697
:1008A000B30133080D3C031C682C6D303307840002
:1008B0008313F030000580006D303307840083130C
:1008C00080126D303307840083130012B30A512C59
:1008D000FC016D30FB00FE01FD01F0308312680564
:1008E000E800E8126812003483160108C03907389E
:1008F0008100831281018B1683161F169F161F130A
:1009000083129F171F1403171F109F141F119F118D
:1009100003131F13003003179E0024300313A1009C
:100920001F08C33921049F0083160C171730970046
:10093000811D9D2C011081100111883087008312C8
:100940001E23E0014F248316A801A001A5018312F4
:10095000DE011F3083168500E0308600A30183127C
:100960004F1CB62C83168516B82C831283160612DC
:100970008312CF1CBF2C83160616C12C831283163C
:100980008512831244088316A4008312EA12871288
:100990000C3097009C000430831603179D00003034
:1009A00083120313A10092007D30831692008312FC
:1009B0006A13EA141E30E7000730E6002730E5002E
:1009C0008B15E0300317960403138B158316161648
:1009D000C03083128B048A15E32AA001A10183167B
:1009E00048080310491CF72C8312A00783168312B2
:1009F000A00CA10C8316C91C002D8312A00783161E
:100A00008312A00CA10C8316491D092D8312A00787
:100A100083168312A00CA10C8316C91D122D8312FC
:100A2000A00783168312A00CA10C8316491E1B2D50
:100A30008312A00783168312A00CA10C8316C91E73
:100A4000242D8312A00783168312A00CA10C8316F9
:100A5000491F2D2D8312A00783168312A00CA10C11
:100A60008316C91F362D8312A00783168312A00C8C
:100A7000A10C003483163F08C8000A30C900831255
:100A8000ED2483164008831221078316C100410814
:100A90008312A1000034831637087F39BA00370863
:100AA000073C03185B2DB8080319582DBB015A2DBC
:100AB0000130BB005D2D3808BB00391001303A020F
:100AC000F83E0318BF2D083E8312C22D8316BB08C3
:100AD00003196D2D8312EA178316BF2D8316BB08E9
:100AE0000319742D2414752D2410BF2D8316BB08F3
:100AF00003197C2DA4147D2DA410BF2D8316BB08D3
:100B00000319912D0830831203178D0083168C135F
:100B10000C1483120C080313B7003E088316A600BA
:100B2000942D8312B7018316BF2D8316BB080319BA
:100B30009F2D831237143E088316A600A22D831220
:100B400037108316BF2D8316BB080319AB2D8312F4
:100B5000B714AD2D83168312B7108316BF2D8316DD
:100B6000BB080319B72D83123715B92D83168312CD
:100B700037118316BF2DEA148316BF2D8316640028
:100B8000831200340A148A100A158207662D6E2D0E
:100B9000762D7E2D952DA32DAF2DBB2D83164B08C5
:100BA0008312A10183164A020318DB2D4A0883121F
:100BB000A000EE2D83168312A00108308316CC000E
:100BC000CA0D8312A00D83164B088312200203184E
:100BD000A000A10D8316CC0BE02D83120034C83089
:100BE0008400831300080319062E0230A100BF30D1
:100BF000A0006400A00BF92DA10BF72D9630A000EA
:100C0000A00B002E032E6400800BF52D00348316FC
:100C100047088312E100831647088312E2008B1213
:100C20000030A100043892007D30831692008C14AD
:100C300087114810AC08031D4814481C2E2E233081
:100C4000831203178D0083168C130C1483120C0867
:100C5000FF3E07390313D200392E83162330831247
:100C600003178D0083168C130C1483120C080313C6
:100C7000D20000340030A10092007D308316920033
:100C80008312970197010C309C00043083160317E0
:100C90009D0003138C1083128B1683168715831205
:100CA00000346A17AE018B1BAE178B136E21AE1B7F
:100CB0008B1703308316C80083123D088316C900C2
:100CC0008312ED2421088316C8000A30C90083125C
:100CD000ED2421088316CA000630CB008312CE25EE
:100CE0008316B601831221088316B5000830B700B9
:100CF000FA30C8008312EF258316B70B782E033025
:100D0000C7008312072683163608B700B70AB70351
:100D10000319902EFF30C8008312EF258316872E0B
:100D20003508C8008312EF253A2664000830831680
:100D3000B700FA30C8008312EF258316B70B992E3F
:100D400083126A13AE018B1BAE178B136E21AE1B81
:100D50008B1700347B086F3C031D162FFC08031D06
:100D6000162F831632080C3C0319BC2E32080B3C9C
:100D70000319BC2E8312162F32080C3C031DC22E01
:100D8000B401C42E0130B40083126D080F398316EC
:100D9000B50083126E080F398316B6003508BF0000
:100DA0003608C00083123A2521088316B300831247
:100DB000530883163302031DE72E8312540883164B
:100DC000B7003408B80083124B25512683168312CE
:100DD000550883163302031DF72E83125608831617
:100DE000B7003408B80083124B25512683168312AE
:100DF000570883163302031D072F831258088316E2
:100E0000B7003408B80083124B255126831683128D
:100E1000590883163302031D172F83125A088316AD
:100E2000B7003408B80083124B255126831683126D
:100E30008A15FF2AFC08031DBC2F7B087A3C031C83
:100E4000BC2FFC08031D282F7B086C3C0318BC2F0B
:100E5000831632080A3A83120319412F073A0319FD
:100E60004A2F033A0319542F013A03195E2F0F3A00
:100E70000319682F0B3A0319722F073A03197C2FB5
:100E8000862F7B08840083137C188317F0300005BD
:100E90008000952F7B08840083137C188317F03023
:100EA00000050A388000952F7B08840083137C1886
:100EB0008317F03000050B388000952F7B088400E5
:100EC00083137C188317F03000050C388000952FB1
:100ED0007B08840083137C188317F03000050D38DD
:100EE0008000952F7B08840083137C188317F030D3
:100EF00000050E388000952F7B08840083137C1832
:100F00008317F03000050F388000952F7B08840090
:100F100083137C188317831632080F398312A000BD
:100F2000F030000520048000952F831632080C3C19
:100F3000031DA72F7D08840083137E188317801656
:100F400003102B0D8312013E8316AB00AE2F7D08DC
:100F5000840083137E1883178012AB017B08840002
:100F600083137C18831700167C08FE007B08FD00A5
:100F7000FB0A0319FC0A83128A15142B83164108F5
:100F8000243C031CCB2F4108C2008A158312EC209D
:100F90008A11D12F83160E30C2008A158312EC20DD
:100FA0008A1100343D088316C8000630C900831238
:100FB000ED2421088316C8000A30C9008312ED24ED
:100FC00021088316BE00C8008312EF2500340430C8
:100FD0008316BD00E130C8008312EF258316BD0BD8
:100FE000EA2F83126A13AE018B1BAE178B136E218F
:060FF000AE1B8B1700345C
:1010000037080139031D0528071037080239031D69
:101010000A28871037080439031D0F280711983054
:101020008316A20083126A178316BD080319372896
:10103000A20803192028AC080319202864001828E6
:101040008312AE018B1BAE178B138A116E218A158A
:10105000AE1B8B1708308316BE00FA30C8008A1109
:101060008312EF258A158316BE0B2D284D28831277
:10107000AE018B1BAE178B138A116E218A15AE1B26
:101080008B1705308316BE006E30C8008A1183129C
:10109000EF258A158316BE0B4428831200343D08C1
:1010A0008316C8000A30C9008A118312ED248A15FC
:1010B00021088316CA000630CB008A118312CE2580
:1010C0008A158316C601831221088316C5000230D3
:1010D000C7008A11831207268A1583164608C7009F
:1010E000C70AC70303197C28FF30C8008A1183127E
:1010F000EF258A15831671284508C8008A118312C6
:10110000EF258A158A113A268A1564003D08831650
:10111000C8000A30C9008A118312ED248A152108FB
:101120008316C700C8008A118312EF258A15003480
:1011300003308316C80083123D088316C9008A1144
:101140008312ED248A1521088316C8000A30C900CD
:101150008A118312ED248A1521088316CA000630ED
:10116000CB008A118312CE258A158316C6018312FD
:1011700021088316C5000230C7008A118312072692
:101180008A1583164608C700C70AC7030319D02863
:10119000FF30C8008A118312EF258A158316C528EF
:1011A0004508C8008A118312EF258A158A113A264C
:1011B0008A1564003D088316C8000A30C9008A11E8
:1011C0008312ED248A1521088316C700C8008A11EE
:1011D0008312EF258A150034831642088A11831280
:1011E00057208A15A1008316C300C4014408033C9C
:1011F000031C10294308C039403A831203190429FB
:10120000C03A0319062908294F20092998200929DD
:1012100009298316C30DC30DFC30C305C40AF62883
:101220004208093C031C1F294208043C031C1C29DA
:10123000831298201E29831683124F2083160330B1
:10124000C80083123D088316C9008A118312ED2459
:101250008A1521088316C8000A30C9008A11831232
:10126000ED248A1521088316C600C8008A1183124E
:10127000EF258A15003483163F0D8312A000A00DC0
:10128000FC30A0052008013E8316C600460A8A11DC
:1012900083127F208A15A300831646088A118312C1
:1012A0007F208A158316C100831223088316C2008B
:1012B0003F0D8312A000A00DFC30A00520088A116C
:1012C0007F208A15A1008316C300FF308312031705
:1012D0008D0083168C130C1483120C0883160313D1
:1012E000C4004308831203178D0083168C130C145B
:1012F00083120C08831603134006C406FF30C9008E
:101300004408CA008A118312FC228A1583164208F7
:101310008312A300831641088400831383122318C9
:1013200083178316400880004308C9004008CA009C
:101330008A118312FC228A1500348316BE1FAB2942
:101340001730C1008A118312BE278A1583163E0802
:10135000003CBF00AD293E08BF00C0013F08093C6A
:101360000318B6290A30BF02C00AAE29C008031903
:10137000C0294008C1008A118312BE278A1583162E
:101380003F08C1008A118312BE278A1500348316D4
:10139000B10183126A1D0E2A6A118316B8017D30CD
:1013A000B700831264088316BA0083126308831699
:1013B000B9001030BB008312A001A3018316B80C42
:1013C000B70C031CED2939088312A0070318A30AE0
:1013D00083163A088312A30783168312A30CA00C6A
:1013E000A20CA10C8316BB0BDF29831222088316E3
:1013F000B800831221088316B700BA0111303802F1
:101400008312A00083163A088312A3000130031C44
:101410000230A30220088316AD0083128316B301A5
:10142000B40183124F1C182A831633141A2A83120C
:101430008316B4148312CF1C212A8316B314232AD3
:10144000831283163414331C3F2A85168312851E9B
:101450002E2A01308316B600302A83128316B60175
:10146000831242088316B1000A30A3003108B70086
:101470003608B8008A1183124B258A158316B31CCF
:101480005B2A06168312061E4A2A01308316B6000E
:101490004C2A83128316B601831243088316B100C7
:1014A0000B30A3003108B7003608B8008A11831248
:1014B0004B258A15831628302D07B2002D08803A57
:1014C000573C031C652AD830AD0083124D088316A3
:1014D000320203187B2A83123F088316B1001530AD
:1014E000A3003108B7000130B8008A1183124B25E0
:1014F0008A159D2A8316320883124E0203188E2AFB
:1015000040088316B1001130A3003108B700013044
:10151000B8008A1183124B258A159D2A410883162B
:10152000B100311C952A1730A3003108B7000130F3
:10153000B8008A1183124B258A158316341CAF2AF2
:101540000612351024080139031D35143518AC2A4C
:1015500083120612AE2A8316831206168316B41C53
:10156000C02A8512351024080239031D3514351898
:10157000BD2A83128512BF2A83168312851683160D
:1015800083128A153E2F840183131F308305713027
:1015900083168F000F08831203171F109F101F114F
:1015A0009F1103131F13003003179E0099019A0126
:1015B00083169E0183129B0103138D128316AE11B5
:1015C0008A118312742C8A156400AE018B1BAE172E
:1015D0008B138A11BB218A15AE1B8B176400EA1E80
:1015E000F52A8A114F248A15EA12681E3C2F6808D2
:1015F0000F398316B100B2008A118312AA2E8A1500
:1016000068080F390B3C031D0C2B8A114F248A15D7
:101610008316AB01162B831268080F398316B100AD
:10162000B2008A1183121A2F8A1583168312680852
:101630000F390C3C031D3B2F6D080F398316B30087
:1016400083126E080F398316B4003308BF003408C4
:10165000C0008A1183123A258A1521088316B10029
:101660003210831245088316310203193A2B3108D0
:101670005A3C03193214200883120319432B013AF0
:101680000319F72B342F8316321CE62BB6016D306D
:10169000B500BA1083126F080F39031D522B831641
:1016A000BA14831201308316B700B8016400BA1C63
:1016B000C12BB3013308073C031CC02BB808031D22
:1016C000BE2B033033076D3E8312A100A301031824
:1016D000A30A21088316B500831223088316B600D7
:1016E0002F3033078400831300080F390F3983121A
:1016F000A000F03083163405831220048316B40052
:10170000B4122F3033078400831300082039031DDF
:10171000B41634122F3033078400831300081039B5
:10172000031D341635088400831336188317000808
:101730000F39B90034080F3939020319A02BB7014A
:101740003A1035088400831336188317801A3A1428
:101750008312A0018316B41EB02B831220148316AB
:101760003A088312200601390319B92B8316B701F1
:1017700083128316B41EBE2B0130B800B30A5A2B55
:10178000C22BB701640037088312A100A108031D12
:10179000CB2B8316E62B01308316A0002C08A50066
:1017A0000130BD00831200200A308316C1008A1167
:1017B0008312BE278A158A11D2278A158A11E72734
:1017C0008A150E30EC004E30EB0083162B081F3CC0
:1017D000031DF62B01308312AF002230B000B1019F
:1017E000B201B301B401B501B6018316372F6B08FE
:1017F0006C0403192E2F83163218002C83122E2FFF
:1018000070080F39BD0071080F39BE003D08BF00D8
:101810003E08C0008A1183123A258A1521088316D2
:10182000B30083126F080F398316B400BC10FE0892
:10183000031D1D2C7D08713C031CBC143C107D084D
:10184000703C031D262CFE0803193C14AE1133080E
:10185000263C03182D2CB4080319AE156400BC1CDB
:10186000382C72080F39B60073080F39B7003A2CBC
:10187000B601B701340B602C3C1C602C0130BD005C
:10188000831200201B308316C1008A118312BE27E9
:101890008A150B308316C1008A118312BE278A1560
:1018A0001D308316C1008A118312BE278A158A1142
:1018B000D2278A158A11E7278A158A0100288316FC
:1018C000AE1D062E340883120319762C023A031932
:1018D000962C073A0319A12C033A0319BA2C013AA2
:1018E00003195C2D0F3A0319DE2DEA2D0130831602
:1018F000BD008312002083163C1C872C0E30C100D3
:101900008A118312BE278A158316A0018E2C0A30F5
:10191000C1008A118312BE278A1583168A11831289
:10192000D2278A158A11E7278A15042E72080F39E3
:101930008316BD003308BF003D08C00083123B2161
:10194000042E72080F398316BD0073080F39BE00CC
:101950003D08BF003E08C0008A1183123A258A154F
:1019600021088316BE003308BF003E08C000831262
:101970003B21042E83163308BD00BF017230BE0028
:101980003D0D8312A000A00DFC30A0052008013EF3
:101990008316C900490A8A1183127F208A15A30081
:1019A000831649088A1183127F208A158316C00086
:1019B000831223088316C1003D0D8312A000A00DE1
:1019C000FC30A00520088A117F208A15A10083160B
:1019D000C3003D0D8312A000A00DFC30A00520081F
:1019E000033E8A117F208A15A1008316C700451087
:1019F000FF30831203178D0083168C130C1483128F
:101A00000C0883160313C400C201470842020318DE
:101A1000532D4518512D64003F088312A3008316EF
:101A20003E0884008313831223188317000883164B
:101A3000C600461245103E08840083133F188317E2
:101A4000801A451441088312A300831640088400BD
:101A500083138312231883178316460880004208D5
:101A60004307C8004808831203178D0083168C13A0
:101A70000C1483120C0883160313C4064208430790
:101A8000C800C9004608CA008A118312FC228A15C0
:101A900083164608C406C00A0319C10ABE0A031900
:101AA000BF0AC20A052DFF30C9004408CA008A11C6
:101AB0008312FC228A15042E01308316BD00831286
:101AC00000208316B308031D772D0E30C1008A1144
:101AD0008312BE278A1503308316C1008A11831230
:101AE000BE278A158A11D2278A15DA2D8316330D5F
:101AF0008312A000A00DFC30A0052008013E831633
:101B0000BE003E0A8A1183127F208A15A300831625
:101B10003E088A1183127F208A158316BA00831229
:101B200023088316BB00B501330D8312A000A00D5E
:101B3000FC30A0052008033E8A117F208A15A100F1
:101B4000831635020318D62D3308103C0318C02D18
:101B50003308163C031CC02D3B088312A3008316D8
:101B60003A0884008313831223188317000883160E
:101B7000BD00C1008A118312BE278A15D02D83169D
:101B80003B088312A30083163A0884008313831250
:101B90002318831700088316BD00BE0083129D2101
:101BA0008316BA0A0319BB0AB50A942D8A11831247
:101BB000D2278A158A11E7278A15042E2D3083161D
:101BC000C900CA018A118312FC228A158A111E23B8
:101BD0008A15042E01308316BD00831200200E30BA
:101BE0008316C1008A118312BE278A15013083161D
:101BF000C1008A118312BE278A158A11D2278A153D
:101C00008A11E7278A15042EFF2E83163308403ADF
:101C100083120319122E023A0319182E043A0319DB
:101C20001E2E252E8316B901A430B8003C152A2E8D
:101C30008316B901A830B8003C152A2E8316A001DE
:101C40008312EA1483162A2E83128316B901B8016F
:101C50003C112A2E3C1DB42E3408013A831203197C
:101C60003E2E033A03194B2E013A03195A2E073A16
:101C700003196A2E033A03197B2E982E831639080E
:101C80008312A30083163808840083138312231859
:101C900083178001B22E831639088312A30083169E
:101CA00038088400831383122318831772080F39AE
:101CB0008000B22E831639088312A30083163808D9
:101CC0008400831383122318831772080F390004CA
:101CD0008000B22E831639088312A30083163808B9
:101CE0008400831383122318831772080F39FF3A75
:101CF00000058000B22E01308316BD008312002043
:101D0000831639088312A3008316380884008313CE
:101D100083122318831700088316BD00BE008312A8
:101D20009D218A11D2278A158A11E7278A15B22E9A
:101D300001308316BD00831200200E308316C100CF
:101D40008A118312BE278A1501308316C1008A11B9
:101D50008312BE278A158A11D2278A158A11E7278E
:101D60008A15B22EFF2E83163308413C031DE72E41
:101D70003408073C031DCD2E0130BD008312002026
:101D800083162D08BE0083129D218A11D2278A1541
:101D90008A11E7278A15E52E83160130BD008312CC
:101DA00000200E308316C1008A118312BE278A15C7
:101DB00001308316C1008A118312BE278A158A1149
:101DC000D2278A158A11E7278A15FF2E831601303C
:101DD000BD00831200200E308316C1008A118312C9
:101DE000BE278A1502308316C1008A118312BE27CE
:101DF0008A158A11D2278A158A11E7278A15831630
:101E00003408023C0319082F3408053C031D272F12
:101E10000130BD008312002083163608C1008A11EC
:101E20008312BE278A1583163408053C031D1F2F15
:101E30003708C1008A118312BE278A1583168A11BA
:101E40008312D2278A158A11E7278A158316640020
:101E50000E308312EC004E30EB00312F8316A001C0
:101E600083128316372F83128316A001372F8A110E
:101E700083124F248A1568126400C7296400EA1C83
:101E8000982F83163010831250184C2FD01C5A2FC5
:101E900037080139031D5A2F0D3003178D008316A3
:101EA0008C130C1483120C080313BC00831630141B
:101EB000672F83125008F0390319682F500EA000C5
:101EC0000F30A00520080739BC0083163014831298
:101ED0008316301C962FBD01831200208316AF019C
:101EE0002F08053C031C862F47302F0784008313DF
:101EF0000008B100C1008A118312BE278A158A1119
:101F0000D2278A1564008316AF0A702F8A118312B4
:101F1000E7278A150D3003178D0083168C130C14D8
:101F200083120C080313BC00831630108312EA10CE
:101F30006400EA1DBD2F8316BD0183120020EA1F35
:101F4000AC2F83162308C1008A118312BE278A157D
:101F50008A11D2278A15EA136A1EB62F1D308316FE
:101F6000C1008A118312BE278A156A128A11D227EC
:0E1F70008A15EA118A11E7278A15E42A630010
:02400E00D433A9
:00000001FF
;PIC16F690
